:100000000C9449010C947A010C947A010C947A01B5
:100010000C947A010C947A010C947A010C947A0174
:100020000C947A010C947A010C947A010C947A0164
:100030000C947A010C947A010C947A010C947A0154
:100040000C947A010C947A010C947A010C947A0144
:100050000C947A010C947A010C947A010C94F105B9
:100060000C947A010C9465060C943B060C947A016E
:100070000C947A010C947A010C947A010C947A0114
:100080000C947A010C947A010C947A010C947A0104
:100090000C947A010C947A010C947A010C947A01F4
:1000A0000C947A010C947A010C947A010C947A01E4
:1000B0000C947A010C947A010C947A010C947A01D4
:1000C0000C947A010C947A010C947A010C947A01C4
:1000D0000C947A010C947A010C947A010C947A01B4
:1000E0000C947A010C94A0010C942B040C944703FB
:1000F0000C94CC020C942F030C94CD010C94B501FC
:100100000C94A8010C94B9010C94AF010C94C70194
:100110000C949A010C949B060C94D1010C940E053E
:100120000C94C3010C94A4010C94FF020C942303BF
:100130000C9467040C94D8020C94C1040C941C0316
:100140000C94AC010C9458040C94E9020C944003F8
:100150000C94BF010C94DB010C941A030C947B04E7
:100160000C9489040C94D5010C94DA010C94DF01F1
:1001700000002100240027002A002D003000330059
:1001800001010000040107010A010000220025000E
:1001900028002B002E003100340002010000050170
:1001A00008010B01000020002300260029002C007C
:1001B0002F003200000100000301060109010505BE
:1001C0000505070508080808020202020A0A0808CD
:1001D00004040404010101010101010103030303FB
:1001E00003030303040707070C0C0C0C0C0C0C0C8A
:1001F0000202020206060606060606060B0B0B0B9B
:100200000B0B0B0B010210202008081020401020BF
:1002100040800201020108040201010204081020CA
:1002200040808040201008040201800402018040C8
:100230002010080402010804020101020408102031
:100240004080010204081020408000000A0B0209CF
:100250000C0D0E0807030401000000000000000060
:10026000000000000000000000000000000000008E
:10027000000000000000121110000000000000004B
:10028000000000000000000000000000000000006E
:100290009B0611241FBECFEFD1E2DEBFCDBF00E031
:1002A0000CBF12E0A0E0B2E0E0E2F2E100E00BBF40
:1002B00002C007900D92A236B107D9F723E0A2E65B
:1002C000B2E001C01D92A432B207E1F711E0C9E427
:1002D000D1E000E006C021970109802FFE010E94B5
:1002E000EB08C834D10780E00807A9F70E9400078F
:1002F0000C940E090C9400008150823108F05AC011
:10030000E82FF0E08827E857FE4F8F4F0C94EB085A
:10031000A801AC019A01A001A401DA01AF01B50165
:10032000B901BF01C301C701CD01D101DA01D50176
:10033000DB01DF01809180008F778093800008953A
:10034000809180008F7DF9CF80918000877FF5CFED
:1003500084B58F7784BD089584B58F7DFBCF809160
:10036000B0008F778093B00008958091B0008F7DAA
:10037000F9CF809190008F778093900008958091BD
:1003800090008F7DF9CF80919000877FF5CF80918D
:10039000A0008F778093A00008958091A0008F7DAA
:1003A000F9CF8091A000877FF5CF809120018F77D2
:1003B000809320010895809120018F7DF9CF809155
:1003C0002001877FF5CFCF93DF93282F30E0F9010D
:1003D000E65BFD4F8491F901EC5FFD4FD491F9018B
:1003E000E254FE4FC491CC23A1F081110E947C0104
:1003F000EC2FF0E0EE0FFF1FEC55FE4FA591B491EE
:10040000EC91ED2381E090E009F480E0DF91CF9161
:10041000089580E090E0FACF1F93CF93DF93282FC9
:1004200030E0F901E65BFD4F8491F901EC5FFD4F8F
:10043000D491F901E254FE4FC491CC23A9F0162FB8
:1004400081110E947C01EC2FF0E0EE0FFF1FE657B8
:10045000FE4FA591B4918FB7F894EC91111108C09B
:10046000D095DE23DC938FBFDF91CF911F9108954C
:10047000DE2BF8CFCF93DF93EC01809112039091A4
:100480001303029749F4C130D10509F43DC07CF54E
:1004900060E0209709F439C0809112039091130312
:1004A000049749F4C130D10509F45EC00CF039C09D
:1004B000209709F444C0809112039091130305978B
:1004C00009F0E7C0CA30D10508F0E3C0FE01882773
:1004D000E359FD4F8F4F0C94EB08CC02D802E90290
:1004E000FF021A031C0323032F0340034703C230F8
:1004F000D105A9F060E0C330D10571F680911603F3
:100500000E940C0260E006C061E0809116030E9428
:100510000C0261E0809118030E940C02BDCF61E0E3
:10052000EDCFC230D10539F1C330D10509F0C3CFC9
:1005300061E0809116030E940C0260E022C061E03D
:10054000809116030E940C0260E0809118030E94C3
:100550000C0261E080911A030E940C0260E080911D
:100560001C030E940C02A7CF60E0809116030E943A
:100570000C0261E0EACF60E0809116030E940C0259
:1005800061E0809118030E940C0260E080911A03E0
:100590000E940C0261E0E3CF60E0809116030E94AC
:1005A0000C0261E0809118030E940C0261E00BC014
:1005B00060E0809116030E940C0261E080911803B4
:1005C0000E940C0260E080911A030E940C0260E01D
:1005D00010C060E0809116030E940C0261E08091DF
:1005E00018030E940C0260E080911A030E940C0222
:1005F00061E080911C030E940C0261E015C060E084
:10060000809116030E940C0261E0809118030E9401
:100610000C0260E080911A030E940C0261E080915C
:100620001C030E940C0260E080911E03DF91CF91B9
:100630000C940C0261E0E4CF61E0809116030E940B
:100640000C0260E0E2CF61E0809116030E940C0290
:1006500060E0809118030E940C0261E0DBCF61E052
:10066000809116030E940C0260E0809118030E94A2
:100670000C0261E080911A030E940C0260E0CFCF6F
:1006800061E0809116030E940C0260E08BCF60E075
:10069000F8CFDF91CF910895CF93DF9390E0FC01E5
:1006A000EC5FFD4F249182549E4FFC01849188237E
:1006B000D1F090E0880F991FFC01E059FE4FA59101
:1006C000B491FC01E657FE4FC591D491623071F4AC
:1006D0009FB7F8943C91822F809583238C93E88177
:1006E0002E2B28839FBFDF91CF9108958FB7F89469
:1006F000EC912E2B2C938FBFF6CF3FB7F8948091BF
:10070000690290916A02A0916B02B0916C0226B5C9
:10071000A89B05C02F3F19F00196A11DB11D3FBF39
:10072000BA2FA92F982F8827BC01CD01620F711D08
:10073000811D911D42E0660F771F881F991F4A9502
:10074000D1F70895CF92DF92EF92FF920F931F930C
:100750008130910509F05DC090930B0380930A03EB
:100760000E947D0300912003109121032091220318
:10077000309123036B017C01C01AD10AE20AF30A0B
:1007800000910C0310910D0320910E0330910F0383
:10079000C016D106E206F30618F3609320037093A7
:1007A000210380932203909323038091140390915B
:1007B000150320910A0330910B032130310581F597
:1007C00001969093150380931403209110033091A8
:1007D00011038217930721F410921503109214034A
:1007E000809114039091150320911203309113030B
:1007F0006AE070E02530310511F064E070E00E949D
:10080000D7081F910F91FF90EF90DF90CF900C943D
:100810003A020196C9F410920B0310920A03A0CF7A
:10082000892B41F48091100390911103909315034B
:100830008093140380911403909115030197909372
:10084000150380931403CCCF1F910F91FF90EF906D
:10085000DF90CF900895AF92BF92CF92DF92EF9248
:10086000FF920F931F93CF93DF936C017B018B015A
:10087000040F151FEB015E01AE18BF08C017D107AA
:1008800059F06991D601ED91FC910190F081E02D34
:10089000C6011995892B79F7C501DF91CF911F9179
:1008A0000F91FF90EF90DF90CF90BF90AF900895A1
:1008B000FC01538D448D252F30E0842F90E0821B66
:1008C000930B541710F0CF96089501970895FC01EB
:1008D000918D828D981761F0A28DAE0FBF2FB11D43
:1008E0005D968C91928D9F5F9F73928F90E008959B
:1008F0008FEF9FEF0895FC01918D828D981731F055
:10090000828DE80FF11D858D90E008958FEF9FEFA8
:100910000895FC01918D228D892F90E0805C9F4F7E
:10092000821B91098F73992708958DE692E00E94AA
:10093000890421E0892B09F420E0822F0895FC012D
:10094000A48DA80FB92FB11DA35ABF4F2C91848D30
:1009500090E001968F739927848FA689B7892C938D
:10096000A089B1898C91837080648C93938D848DE0
:10097000981306C00288F389E02D80818F7D8083E3
:100980000895EF92FF920F931F93CF93DF93EC01A3
:1009900081E0888F9B8D8C8D98131AC0E889F98926
:1009A000808185FF15C09FB7F894EE89FF89608329
:1009B000E889F98980818370806480839FBF81E0AA
:1009C00090E0DF91CF911F910F91FF90EF900895EC
:1009D000F62E0B8D10E00F5F1F4F0F731127E02EC7
:1009E0008C8D8E110CC00FB607FCFACFE889F989FF
:1009F000808185FFF5CFCE010E949F04F1CFEB8D62
:100A0000EC0FFD2FF11DE35AFF4FF0829FB7F894D2
:100A10000B8FEA89FB8980818062CFCFCF93DF93F0
:100A2000EC01888D8823B9F0AA89BB89E889F98906
:100A30008C9185FD03C0808186FD0DC00FB607FC3B
:100A4000F7CF8C9185FFF2CF808185FFEDCFCE016E
:100A50000E949F04E9CFDF91CF91089580E090E05C
:100A6000892B29F00E94950481110E94000080E0EA
:100A700090E0892B49F080E090E0892B29F00E94DA
:100A8000000081110E94000080E090E0892B49F075
:100A900080E090E0892B29F00E94000081110E94E3
:100AA000000080E090E0892B49F080E090E0892B05
:100AB00029F00E94000081110C9400000895FC01AF
:100AC00001900020E9F73197AF01481B590BBC0199
:100AD0008DE692E00C942B048F929F92AF92BF927E
:100AE000CF92DF92EF92FF920F931F93CF93DF93FA
:100AF000CDB7DEB7A1970FB6F894DEBF0FBECDBF5E
:100B00006C01990FEE08FF08F7FE47C06DE28DE615
:100B100092E00E94C1048C0122273327A9012C19DD
:100B20003D094E095F0919A2CE0181967C019AE028
:100B3000892E912CA12CB12CCA01B901A5019401D7
:100B40000E94A608605DF70162937F0121153105BF
:100B50004105510589F790E080E0309719F0CF0109
:100B60000E945F05080F191F86E192E00E945F0551
:100B7000800F911FA1960FB6F894DEBF0FBECDBFB8
:100B8000DF91CF911F910F91FF90EF90DF90CF9069
:100B9000BF90AF909F908F900895A701960119A2E2
:100BA0008E010F5D1F4F8AE0C82ED12CE12CF12C55
:100BB000CA01B901A70196010E94A608605DF8016B
:100BC00062938F01211531054105510589F7309751
:100BD00029F0CF010E945F058C01C6CF10E000E034
:100BE000C3CF1F920F920FB60F9211242F933F93F2
:100BF0008F939F93AF93BF9380916502909166020C
:100C0000A0916702B09168023091640223E0230F43
:100C10002D3758F50196A11DB11D209364028093D4
:100C2000650290936602A0936702B0936802809178
:100C3000690290916A02A0916B02B0916C020196D8
:100C4000A11DB11D8093690290936A02A0936B026B
:100C5000B0936C02BF91AF919F918F913F912F9173
:100C60000F900FBE0F901F90189526E8230F029645
:100C7000A11DB11DD2CF1F920F920FB60F9211245A
:100C80000BB60F922F933F934F935F936F937F9386
:100C90008F939F93AF93BF93EF93FF938DE692E073
:100CA0000E949F04FF91EF91BF91AF919F918F910F
:100CB0007F916F915F914F913F912F910F900BBE5C
:100CC0000F900FBE0F901F9018951F920F920FB6A6
:100CD0000F9211240BB60F922F938F939F93EF9344
:100CE000FF93E0917D02F0917E028081E09183028A
:100CF000F091840282FD1DC09081809186028F5FF9
:100D00008F7320918702821741F0E0918602F0E014
:100D1000E359FD4F958F80938602FF91EF919F914C
:100D20008F912F910F900BBE0F900FBE0F901F90C1
:100D300018958081F2CFCF93DF93EDE6F2E0138236
:100D4000128288EE93E0A0E0B0E084839583A683CE
:100D5000B78388E092E09183808385EC90E095876B
:100D6000848784EC90E09787868780EC90E0918B75
:100D7000808B81EC90E0938B828B82EC90E0958B62
:100D8000848B86EC90E0978B868B118E128E138E5F
:100D9000148ECAE0D3E01B861A86198218821E8A36
:100DA0001F8A188E198E88EC90E09F838E8388E0CE
:100DB00090E09D878C878AE090E09F878E8789E00E
:100DC00090E0998B888B8BE090E09B8B8A8B61E025
:100DD00088E00E944C0361E08E850E944C0361E034
:100DE00088890E944C0361E08A890E944C031D8A15
:100DF0001C8A84E090E099878887DF91CF910895DD
:100E0000789484B5826084BD84B5816084BD85B5E5
:100E1000826085BD85B5816085BD80916E008160F1
:100E200080936E0010928100809181008260809397
:100E30008100809181008160809381008091800099
:100E40008160809380008091B10084608093B100C4
:100E50008091B00081608093B000809191008260A9
:100E600080939100809191008160809391008091A6
:100E700090008160809390008091A10082608093B7
:100E8000A1008091A10081608093A1008091A000C9
:100E900081608093A0008091210182608093210174
:100EA00080912101816080932101809120018160E6
:100EB0008093200180917A00846080937A008091F1
:100EC0007A00826080937A0080917A0081608093BA
:100ED0007A0080917A00806880937A001092C10035
:100EE000E0917D02F0917E0282E08083E0917902C0
:100EF000F0917A021082E0917B02F0917C028FECFB
:100F0000808310928502E0918102F091820286E056
:100F10008083E0917F02F0918002808180618083F4
:100F2000E0917F02F0918002808188608083E0916F
:100F30007F02F0918002808180688083E0917F024F
:100F4000F091800280818F7D808362E082E00E9448
:100F50004C0362E083E00E944C0300E4412C97E8DC
:100F6000592E93E9692E93E0792E11E080917B0050
:100F7000877F80937B0000937C0080917A0080645F
:100F800080937A0080917A0086FDFCCFE090780013
:100F9000F0907900F0926302E092620228EE33E072
:100FA000D7010E94F3082FEF33E040E050E00E94A9
:100FB0008708DA01C901845F9140A109B109EC01F8
:100FC00097FF04C0CC27DD27C81BD90B2091100345
:100FD00030911103032E000C440B550BC301B201D9
:100FE0000E948708CA01B9019E010D2E000C440B16
:100FF000550B0E94870820930C0330930D034093F8
:101000000E0350930F0382E00E94E3016C0183E022
:101010000E94E301CD2809F06EC0892B11F01093D6
:10102000030280910302882309F46BC081E090E001
:101030000E94A20380910102909102028E159F05E9
:10104000C9F089E292E00E945F058091620290916E
:1010500063020E946C058FE392E00E945F05CE015F
:101060000E946C058091620290916302909302024B
:101070008093010290910302809100029817A1F0E1
:1010800085E592E00E945F058091030281113CC0DA
:1010900089E192E00E945F0586E192E00E945F058F
:1010A00080910302809300020E947D034B015C014A
:1010B00082E3C82ED12CE12CF12C0E947D0368190B
:1010C00079098A099B09683E734081059105A8F357
:1010D00021E0C21AD108E108F10888EE880E83E009
:1010E000981EA11CB11CC114D104E104F10429F71C
:1010F0000E942E053BCF892B09F093CF109203025B
:1011000090CF8FEF9FEF94CF81E292E0C3CF052E77
:1011100097FB1EF400940E949E0857FD07D00E9482
:10112000A60807FC03D04EF40C949E0850954095F9
:10113000309521953F4F4F4F5F4F08959095809583
:10114000709561957F4F8F4F9F4F0895A1E21A2EA2
:10115000AA1BBB1BFD010DC0AA1FBB1FEE1FFF1F5B
:10116000A217B307E407F50720F0A21BB30BE40BAB
:10117000F50B661F771F881F991F1A9469F76095F2
:101180007095809590959B01AC01BD01CF010895AC
:10119000A29FB001B39FC001A39F700D811D1124B8
:1011A000911DB29F700D811D1124911D089597FB13
:1011B000072E16F4009407D077FD09D00E94FA0894
:1011C00007FC05D03EF4909581959F4F089570954A
:1011D00061957F4F0895EE0FFF1F881F8BBF07900B
:1011E000F691E02D19940E94C808B7FF0895821B5C
:1011F000930B0895AA1BBB1B51E107C0AA1FBB1F7D
:10120000A617B70710F0A61BB70B881F991F5A9592
:10121000A9F780959095BC01CD010895F894FFCF72
:1012200001FFFF0100000000C1042B0458040E055B
:10123000890467047B040D0A005265766572736544
:1012400000466F727761726400506F74656E7469E6
:101250006F6D657465722056616C75653A20005338
:10126000746570706572204D6F746F722053706575
:1012700065643A2000446972656374696F6E3A2050
:0212800000006C
:00000001FF
